:020000040000FA
:0400000007EF00F016
:0A0008005F8276ED0CF04CEF0DF076
:100800000054656D702E3A202020202020202020CA
:1008100020004465736C6F63616E646F2E2E2E2012
:10082000202000526573667269616E646F2E2E2EF1
:10083000202020004C6967616E646F2076656E74BD
:10084000696C2E2000496E73657269722050726F58
:100850006475746F210045737475666120506C7502
:10086000732076312E300046696E616C697A616E54
:10087000646F2E2E2E002067726175730000185071
:10088000800B216E18501824276E17AE4AEF04F023
:100890004CEF04F04DEF04F027802750D8B453EF0D
:1008A00004F055EF04F068EF04F02728D8A45BEFBC
:1008B00004F05DEF04F065EF04F0000E156E000E1D
:1008C000166E000E176E000E186E178E70EF04F085
:1008D000000E156E000E166E000E176E000E186ECE
:1008E0001C50800B211A1C501C24266E1BAE7BEF63
:1008F00004F07DEF04F07EEF04F026802650D8B49B
:1009000084EF04F086EF04F099EF04F02628D8A4D1
:100910008CEF04F08EEF04F096EF04F0000E196EE9
:10092000000E1A6E000E1B6E000E1C6E1B8EA1EFC9
:1009300004F0000E196E000E1A6E000E1B6E000EF3
:100940001C6E2650D8B4A7EF04F0A9EF04F0B1EF65
:1009500004F02750D8A4AFEF04F0B1EF04F0BBEFE0
:1009600004F0000E156E000E166E000E176E000ECF
:10097000186E53EF06F01B501502F3CF2CF0F4CF96
:100980002DF02C50226E236A246A256A2D50286E81
:10099000296A2A6A2B6A1A501602F3CF2CF0F4CF78
:1009A0002DF02C502226000E2322242225222D5009
:1009B0002826000E29222A222B2219501702F3CFB3
:1009C0002CF0F4CF2DF02C502226000E23222422CE
:1009D00025222D502826000E29222A222B2224C02F
:1009E00025F023C024F022C023F0226A19501602F9
:1009F000F3CF2CF0F4CF2DF02C5022262D502322B3
:100A0000000E2422000E25221A501502F3CF2CF0DE
:100A1000F4CF2DF02C5022262D502322000E24221C
:100A2000000E252224C025F023C024F022C023F08C
:100A3000226A19501502F3CF2CF0F4CF2DF02C5070
:100A400022262D502322000E2422000E25221B5088
:100A50001602F3CF2CF0F4CF2DF02C5028262D5079
:100A60002922000E2A22000E2B221A501702F3CF41
:100A70002CF0F4CF2DF02C5028262D502922000EDA
:100A80002A22000E2B221B501702F3CF2CF0F4CF9A
:100A90002DF02C501D6E2D501E6E1F6A206A1FC037
:100AA00020F01EC01FF01DC01EF01D6A1D5028261C
:100AB0001E5029221F502A2220502B2222C01DF016
:100AC00023C01EF024C01FF025C020F0190E6EEFC9
:100AD00005F0D89020321F321E321D32E82E69EF09
:100AE00005F01D5028261E5029221F502A22205072
:100AF0002B2224C025F023C024F022C023F0226A38
:100B0000265027C01DF01E6A1D26000E1E22820ED2
:100B10001D242C6EFF0E1E202D6EA4EF05F0D89024
:100B2000283629362A362B3625AE99EF05F09BEF6D
:100B300005F09CEF05F02880D89022362336243625
:100B400025362C06D8A02D062AAEA9EF05F0ABEF6E
:100B500005F08FEF05F0000E266E25AEB2EF05F022
:100B6000B4EF05F0D8EF05F0FF0E22141D6EFF0E56
:100B700023141E6EFF0E24141F6E7F0E2514206E8C
:100B80001D501E101F102010D8B4C9EF05F0CBEF78
:100B900005F0CFEF05F0010E266ED8EF05F028A086
:100BA000D4EF05F0D6EF05F0D8EF05F0CBEF05F068
:100BB0002650D8B4DEEF05F0E0EF05F004EF06F0C4
:100BC000010E2826000E29222A222B222BA0EBEF31
:100BD00005F0EDEF05F004EF06F028C01DF029C088
:100BE0001EF02AC01FF02BC020F0203420321F320C
:100BF0001E321D321DC028F01EC029F01FC02AF071
:100C000020C02BF02C4A2D2A2DBE0FEF06F02D50C0
:100C100008E12C28D8A00FEF06F011EF06F01BEF2B
:100C200006F0000E286E000E296E800E2A6E7F0ED2
:100C30002B6E49EF06F02DBE28EF06F02D5006E191
:100C40002C04D8B026EF06F028EF06F034EF06F0BB
:100C5000000E286E000E296E000E2A6E000E2B6EFE
:100C6000000E216E49EF06F02CC027F0FF0E28166B
:100C7000FF0E29167F0E2A16000E2B1627A043EF13
:100C800006F045EF06F046EF06F02A8ED8902730A2
:100C90002B6E21502B1228C015F029C016F02AC047
:100CA00017F02BC018F0120095929594030E936ED6
:100CB0009484000E6D6E6F86F18E22EC0DF0FF0EA7
:100CC000DFEC0DF0ECEC0DF0000E026E010E016E8B
:100CD0006EC003F06FC004F072EC0DF0010E046EF4
:100CE000010EBAEC0CF0560E046E080E056EAEEC5A
:100CF0000DF0010E046E020EBAEC0CF022EF08F0BB
:100D000083928394000E026E000E016E90EC0DF043
:100D1000010E046E020EBAEC0CF0450E046E080EC5
:100D2000056EAEEC0DF082A898EF06F09AEF06F093
:100D300022EF08F0020E5E6E22EF08F083828394A9
:100D4000000E026E000E016E90EC0DF0010E046EAE
:100D5000020EBAEC0CF0120E046E080E056EAEEC2C
:100D60000DF082A4B6EF06F0B8EF06F022EF08F01F
:100D7000030E5E6E22EF08F08382000E026E000EFC
:100D8000016E90EC0DF0010E046E020EBAEC0CF048
:100D9000010E046E080E056EAEEC0DF0000E326E04
:100DA000000E336E800E346E440E356E000E196EDA
:100DB000000E1A6EA00E1B6E400E1C6EC9EC0DF0DC
:100DC00001C007F002C008F0096A0A6A000E16ECBA
:100DD0000AF007C015F008C016F009C017F00AC0E5
:100DE00018F03FEC04F015C02EF016C02FF017C01D
:100DF00030F018C031F049EC08F02EC054F02FC08C
:100E000055F030C056F031C057F0000E196E000E8C
:100E10001A6EA00E1B6E410E1C6E54C015F055C00C
:100E200016F056C017F057C018F03FEC04F015C08C
:100E300047F016C048F017C049F018C04AF0F0EC6F
:100E40000AF047C05AF048C05BF0080E046E020E6C
:100E5000BAEC0CF0000E046E0A0E036E5AC001F0DC
:100E60005BC002F073EC0BF001C009F002C00AF0A5
:100E7000000E0C6E0A0E0B6ED5EC0BF00950300F05
:100E8000F3EC0CF05AC009F05BC00AF0000E0C6ED7
:100E90000A0E0B6ED5EC0BF00950300FF3EC0CF092
:100EA000760E046E080E056EAEEC0DF0820E516EDD
:100EB000DE0EE82EFED7512EFCD75BBE6BEF07F09F
:100EC0005B5007E1370E5A5CD8B069EF07F06BEF63
:100ED00007F06CEF07F083845BBE78EF07F05B50A0
:100EE00009E1420E5A5CD8A078EF07F07AEF07F0DC
:100EF0007BEF07F0839481A080EF07F082EF07F08B
:100F000022EF08F0040E5E6E22EF08F083928394C5
:100F1000010E046E020EBAEC0CF0340E046E080ED4
:100F2000056EAEEC0DF0000E5D6E000E5C6E5CC0EA
:100F300001F05DC002F090EC0DF00D0E516EFC0E54
:100F4000E82EFED7512EFCD70A0E5C245C6E000EF4
:100F50005D205D6E5DBEB6EF07F0E80E5C5C030ED3
:100F60005D58D8A0B6EF07F0B8EF07F097EF07F09D
:100F700066C058F067C059F0050E5E6E22EF08F0AB
:100F800083928394030E026EE80E016E90EC0DF0D6
:100F9000010E046E020EBAEC0CF0230E046E080E65
:100FA000056EAEEC0DF0050E5824516E000E592062
:100FB000526E51500001665D6751800A536E525067
:100FC000800A5358D8A0E7EF07F0E9EF07F022EFC7
:100FD00008F0060E5E6E22EF08F083928394010EF5
:100FE000046E020EBAEC0CF0670E046E080E056E6D
:100FF000AEEC0DF0030E5D6EE80E5C6E5CC001F0B1
:101000005DC002F090EC0DF00D0E516EFC0EE82E5E
:10101000FED7512EFCD7F60E5C245C6EFF0E5D20D1
:101020005D6E5DBE1EEF08F05D5006E15C04D8B059
:101030001CEF08F01EEF08F0FEEF07F0010E5E6EE9
:1010400022EF08F05E50516E526A5250000AD8B436
:101050002CEF08F022EF08F05150010AD8B480EFCD
:1010600006F0030AD8B49EEF06F0010AD8B4BCEF2C
:1010700006F0070AD8B486EF07F0010AD8B4C0EF2B
:1010800007F0030AD8B4EDEF07F022EF08F007EFFE
:1010900000F03150800B3E6E31503124456E30AE41
:1010A00054EF08F056EF08F057EF08F04580455030
:1010B000D8B45DEF08F05FEF08F074EF08F0452852
:1010C000D8A465EF08F067EF08F06FEF08F0000EA6
:1010D0002E6E000E2F6E000E306E000E316E308EB2
:1010E000000E316E7CEF08F0000E2E6E000E2F6E9B
:1010F000000E306E000E316E3550800B3E1A3550AA
:101100003524466E34AE87EF08F089EF08F08AEF99
:1011100008F046804650D8B490EF08F092EF08F0FF
:10112000A7EF08F04628D8A498EF08F09AEF08F047
:10113000A2EF08F0000E326E000E336E000E346E19
:10114000000E356E348E000E356EAFEF08F0000ED7
:10115000326E000E336E000E346E000E356E32505D
:10116000331034103510D8A4B8EF08F0BAEF08F0F7
:10117000D2EF08F0000E2E6E000E2F6E000E306EB5
:10118000000E316E800E30127F0E31123E50311241
:101190002EC02EF02FC02FF030C030F031C031F013
:1011A00015EF0AF04550D8A4D8EF08F0DAEF08F0B0
:1011B000E4EF08F0000E2E6E000E2F6E000E306E63
:1011C000000E316E15EF0AF0465045C036F0376A12
:1011D000365E000E375A7F0E36243F6E000E3720E3
:1011E000406E2EC03AF02FC03BF030C03CF031C012
:1011F0003DF0000E2E6E000E2F6E000E306E000EB3
:10120000316E000E416E000E426E000E436E000EF7
:10121000446E000E466E45EF09F04650D8B413EF09
:1012200009F015EF09F02CEF09F0D8903A363B366B
:101230003C363D36D8902E362F363036313644AED9
:1012400024EF09F026EF09F027EF09F02E80D8905F
:10125000413642364336443632503A5C33503B587E
:1012600034503C5835503D58D8A039EF09F03BEF89
:1012700009F044EF09F0448C32503A5E33503B5A47
:1012800034503C5A35503D5A462A190E46644BEFAD
:1012900009F04DEF09F00DEF09F03A503B103C100A
:1012A0003D10D8B456EF09F058EF09F070EF09F08F
:1012B000418070EF09F0D8902E362F363036313617
:1012C00044AE65EF09F067EF09F068EF09F02E8092
:1012D000D89041364236433644363F06D8A04006C1
:1012E00030AE75EF09F077EF09F05BEF09F0000E13
:1012F000466E44AE7EEF09F080EF09F0A4EF09F0EE
:10130000FF0E4114366EFF0E4214376EFF0E43146B
:10131000386E7F0E4414396E36503710381039103D
:10132000D8B495EF09F097EF09F09BEF09F0010EA3
:10133000466EA4EF09F02EA0A0EF09F0A2EF09F08D
:10134000A4EF09F097EF09F04650D8B4AAEF09F0DE
:10135000ACEF09F0D0EF09F0010E2E26000E2F227F
:101360003022312231A0B7EF09F0B9EF09F0D0EF08
:1013700009F02EC036F02FC037F030C038F031C041
:1013800039F03934393238323732363236C02EF00D
:1013900037C02FF038C030F039C031F03F4A402A12
:1013A00040BEDBEF09F0405008E13F28D8A0DBEF5A
:1013B00009F0DDEF09F0E8EF09F0000E406E3F683C
:1013C000000E2E6E000E2F6E000E306E000E316E6F
:1013D00040BEF5EF09F0405006E13F04D8B0F3EF0E
:1013E00009F0F5EF09F003EF0AF0000E406E000E71
:1013F0003F6E000E2E6E000E2F6E000E306E000E31
:10140000316E000E3E6E3FC045F045A00AEF0AF077
:101410000CEF0AF00FEF0AF0308E10EF0AF0309E5A
:10142000D8904530316EC6EF08F012000F6E0F50A5
:10143000D8B41DEF0AF01FEF0AF041EF0AF00ABE20
:1014400026EF0AF024EF0AF041EF0AF007C00BF094
:1014500008C00CF009C00DF00AC00EF00B1E0C1EE7
:101460000D1E0E1E0B2A000E0C220D220E220BC08A
:1014700011F00CC012F00DC013F00EC014F049EFC3
:101480000AF007C011F008C012F009C013F00AC03A
:1014900014F00750081009100A10D8A452EF0AF0EF
:1014A00054EF0AF05EEF0AF0000E076E000E086EB1
:1014B000000E096E000E0A6EEFEF0AF0960E106E27
:1014C00068EF0AF0102AD890143213321232113217
:1014D000000E11140B6E000E12140C6E000E13147D
:1014E0000D6EFE0E14140E6E0B500C100D100E101F
:1014F000D8A47DEF0AF07FEF0AF062EF0AF08DEFDB
:101500000AF0102A010E1126000E122213221422B4
:10151000D8901432133212321132000E11140B6EA5
:10152000000E12140C6E000E13140D6EFF0E141428
:101530000E6E0B500C100D100E10D8A4A2EF0AF076
:10154000A4EF0AF081EF0AF0ACEF0AF01006D89091
:10155000113612361336143613BEB1EF0AF0B3EF5C
:101560000AF0BBEF0AF0020E1060B9EF0AF0BBEF11
:101570000AF0A6EF0AF010B0C0EF0AF0C2EF0AF0CE
:10158000C3EF0AF0139ED890103210C00BF00C6A13
:101590000D6A0E6A0BC00EF00D6A0C6A0B6A0B50D6
:1015A00011120C5012120D5013120E5014120F5033
:1015B000D8B4DDEF0AF0DFEF0AF0E7EF0AF00ABE79
:1015C000E6EF0AF0E4EF0AF0E7EF0AF0148E11C03C
:1015D00007F012C008F013C009F014C00AF012009E
:1015E00049344A34506E5050D8A4F9EF0AF0FBEF5A
:1015F0000AF005EF0BF0000E476E000E486E000E6D
:10160000496E000E4A6E72EF0BF047C04BF048C0B7
:101610004CF049C04DF04AC04EF0200E15EF0BF0D3
:10162000D8904E324D324C324B32E82E10EF0BF048
:101630004B504F6E498EFF0E4716FF0E4816FF0E99
:101640004916000E4A16960E505E50BE2CEF0BF057
:101650002AEF0BF042EF0BF05050800A970FD8B0F2
:1016600034EF0BF036EF0BF038EF0BF0FBEF0AF036
:10167000D8904A32493248324732503E38EF0BF068
:101680005AEF0BF01F0E506448EF0BF04AEF0BF0CF
:1016900052EF0BF0FBEF0AF0D89047364836493648
:1016A0004A3650065050D8A458EF0BF05AEF0BF0C2
:1016B0004CEF0BF04F50D8B460EF0BF062EF0BF033
:1016C0006AEF0BF04A1E491E481E476C000E482266
:1016D00049224A2247C047F048C048F049C049F073
:1016E0004AC04AF01200000E066E04BE7CEF0BF0FA
:1016F0007AEF0BF082EF0BF0036C041ED8B0042AD3
:10170000010E066E02BE89EF0BF087EF0BF08FEF34
:101710000BF0016C021ED8B0022A010E061A000E50
:10172000086E000E076E03500410D8B49AEF0BF049
:101730009CEF0BF0C4EF0BF0010E056EA4EF0BF065
:10174000D89003360436052A04AEA9EF0BF0ABEFB0
:101750000BF0A0EF0BF0D890073608360350015C71
:1017600004500258D8A0B7EF0BF0B9EF0BF0BEEF62
:101770000BF00350015E0450025A0780D8900432E7
:101780000332052EABEF0BF00650D8B4CAEF0BF0C6
:10179000CCEF0BF0D0EF0BF0076C081ED8B0082A86
:1017A00007C001F008C002F01200000E0E6E0ABE63
:1017B000DEEF0BF0DCEF0BF0E4EF0BF0096C0A1E30
:1017C000D8B00A2A010E0E6E0CBEEBEF0BF0E9EF5B
:1017D0000BF0EFEF0BF00B6C0C1ED8B00C2A0B507B
:1017E0000C10D8B4F6EF0BF0F8EF0BF01CEF0CF088
:1017F000010E0D6E00EF0CF0D8900B360C360D2A52
:101800000CAE05EF0CF007EF0CF0FCEF0BF00B50FB
:10181000095C0C500A58D8A010EF0CF012EF0CF035
:1018200016EF0CF00B50095E0C500A5AD8900C328F
:101830000B320D2E07EF0CF00E50D8B422EF0CF047
:1018400024EF0CF028EF0CF0096C0A1ED8B00A2A1D
:1018500009C009F00AC00AF01200036E000E026E01
:101860000250D8B436EF0CF038EF0CF043EF0CF028
:1018700003C001F0013AF00E011681500F0B011068
:10188000816E47EF0CF081500F0B0310816E819435
:101890008186100EE82EFED700D08196022A010E16
:1018A000026455EF0CF057EF0CF030EF0CF003042E
:1018B000D8B45DEF0CF05FEF0CF068EF0CF0020EA7
:1018C0000318D8A466EF0CF068EF0CF071EF0CF081
:1018D000030E016E980EE82EFED7012EFCD775EF91
:1018E0000CF0100EE82EFED700D012000600F2A475
:1018F0007CEF0CF07EEF0CF0B8EF0CF0F2940001EE
:101900006F51D76E6EC0D6FF664B672B644B652B4D
:101910003C0E64196511D8A490EF0CF092EF0CF016
:10192000B8EF0CF0000E656F000E646F624B632B16
:101930003C0E62196311D8A4A0EF0CF0A2EF0CF0DA
:10194000B8EF0CF0000E636F000E626F604B612BFE
:10195000180E60196111D8A4B0EF0CF0B2EF0CF0C2
:10196000B8EF0CF0000E616F000E606FB8EF0CF076
:101970005F921100076E0406D2EF0CF00450800F46
:10198000086EEFEF0CF00450C00F086EEFEF0CF094
:101990000450940F086EEFEF0CF00450D40F086E53
:1019A000EFEF0CF00750056E066A0650000AD8B437
:1019B000DCEF0CF0EFEF0CF00550010AD8B4BEEFED
:1019C0000CF0030AD8B4C3EF0CF0010AD8B4C8EF86
:1019D0000CF0070AD8B4CDEF0CF0EFEF0CF0085084
:1019E0002DEC0CF01200026E000E036E0350D8B402
:1019F000FCEF0CF0FEEF0CF009EF0DF002C001F06F
:101A0000013AF00E011681500F0B0110816E0DEF9F
:101A10000DF081500F0B0210816E81848186100EB3
:101A2000E82EFED700D08196032A010E03641BEF37
:101A30000DF01DEF0DF0F6EF0CF0100EE82EFED7B6
:101A400000D0120020EE68F010EE05F0050EDBCF9E
:101A5000E3FFE806FCE281500F0B816E81948196D2
:101A6000140E046E7A0EE82EFED7042EFCD7000E5C
:101A70000B6E050E0B24D96EDA6A000EDA22DF50E7
:101A80002DEC0CF00B2A050E0B6449EF0DF04BEF1B
:101A90000DF039EF0DF01200EA0EF66E1B0EF76E28
:101AA000000EF86E00EE68F010EE08F00900F5CFB9
:101AB000EEFFE550E150FAE1F20EF66E1B0EF76E06
:101AC000000EF86E0900F5CF5EF000EE60F0080E33
:101AD000EE6AE806FDE15F905F92000EF86E00018D
:101AE00054EF06F001040210D8A479EF0DF07BEF5B
:101AF0000DF07FEF0DF0200EF26EF184D08E850E8A
:101B0000D56E0450D76E03C0D6FF01040210D8A4CE
:101B10008CEF0DF08EEF0DF08FEF0DF0F28E1200C6
:101B200001B002D0BA9801D0BA88D8900230046EC1
:101B30000130036E033A0346BA500318DF0B031853
:101B4000BA6E01C003F002C004F0D8900432033230
:101B5000D890043203320350BB6E1200BAEF0DF07E
:101B600004C0F6FF05C0F7FF0800F550F3EC0CF0D9
:101B7000044A052A04C0F6FF05C0F7FF0800F55027
:101B80000009D8A4C6EF0DF0C8EF0DF0B0EF0DF0CE
:101B90001200C282C2B2CFEF0DF0D1EF0DF0CAEF4A
:101BA0000DF0C4CF05F0066A0550036EC350056EF4
:101BB00003C006F005C001F006C002F01200016E7D
:101BC00001C0CBFF9492000ECA6ECA84CB68BD8E52
:101BD000BD9C0C0EBA6E12009280000EC26E0E0EEC
:101BE000C16ED90EC06EC28012003332280C0601BD
:031BF000F7C20138
:020000040020DA
:08000000FFFFFFFFFFFFFFFF00
:020000040030CA
:0E000000000C0000FF8181FF0FC00FE00F40D9
:00000001FF
